:020000040800F2
:10000000005000207D080008F1060008F7060008EF
:10001000FD060008030700080907000800000000AB
:100020000000000000000000000000000F070008B2
:100030001B0700080000000027070008330700081E
:10004000C5080008C5080008C5080008C50800085C
:10005000C5080008C5080008C5080008C50800084C
:10006000C5080008C5080008C5080008C50800083C
:10007000C5080008C5080008C5080008C50800082C
:10008000C5080008C5080008C5080008C50800081C
:100090004107000855070008C5080008C508000802
:1000A000C5080008C5080008C5080008C5080008FC
:1000B000C5080008C5080008C5080008C5080008EC
:1000C000C5080008C5080008C5080008C5080008DC
:1000D000C5080008C5080008C5080008C5080008CC
:1000E000C5080008C5080008C50800080000000091
:1000F0000000000000000000000000000000000000
:0C01000000000000000000005FF808F1A3
:10010C0010B5054C237833B9044B13B10448AFF345
:10011C0000800123237010BD680000200000000047
:10012C002836000808B5034B1BB103490348AFF34D
:10013C00008008BD000000006C000020283600087C
:10014C0080B586B000AFF860B9607A60FB68012BAF
:10015C0002D0FB68022B11D17B689AB24FF0FF33AF
:10016C00B968094802F073F90346FB75FB7D002B57
:10017C0001D17B6804E04FF0FF3301E04FF0FF3317
:10018C0018461837BD4680BDAC00002080B582B043
:10019C0000AF7860114802F087FB0A2002F096FB52
:1001AC000F4B104A0021786800F0CCFE0346002B60
:1001BC000AD10C4B1B680B4A126919460A4802F00B
:1001CC0073FB0A2002F082FB084B1B780133DAB276
:1001DC00064B1A7000BF0837BD4680BD403600087C
:1001EC003801002004010020643600084001002082
:1001FC0080B584B000AF00F061FB00F085F800F032
:10020C0045F900F0C7F800F017F9354802F04CFB3F
:10021C000A2002F05BFB334800F076FD02213148E6
:10022C0000F0A1FF304B01221A612F4B00225A60C3
:10023C002D4B00229A602C4B0022DA602A4B40F2A4
:10024C0001121A60284B00221A75284B01221A70D1
:10025C00264B02225A70254B03229A70234B042200
:10026C00DA70234B214A20491E4800F091FD0346C9
:10027C00002B01D000F056F91E4B1F4A1A491948A1
:10028C0000F086FD0346002B01D000F04BF91B4B10
:10029C001B4A1549134800F07BFD0346002B01D087
:1002AC0000F040F900237B600023FB600023BB605F
:1002BC0000F05CFB78607A68FB68D31AB3F5FA7FC0
:1002CC0006D34FF400510F4801F040FC7B68FB60F3
:1002DC007A68BB68D31AF92BEAD97B68BB60E7E76D
:1002EC008C36000884000020EC0000203001002037
:1002FC0020010020240100203101002028010020D1
:10030C00320100200010014080B590B000AF07F121
:10031C00180328220021184602F023FB3B1D002263
:10032C001A605A609A60DA601A610123BB614FF45B
:10033C008033FB6100233B620123BB6202237B639E
:10034C004FF48033BB634FF4E013FB6307F11803E6
:10035C00184601F015FC0346002B01D000F0E2F822
:10036C000F237B600223BB600023FB604FF4806390
:10037C003B6100237B613B1D0221184601F082FE8C
:10038C000346002B01D000F0CDF800BF4037BD462E
:10039C0080BD000080B58AB000AF254B254A1A609D
:1003AC00234B12225A60224B4FF080429A60204B12
:1003BC000022DA601E4B4FF480321A611C4B002273
:1003CC005A611B4B00221A76194B00225A76184B95
:1003DC0000229A76164B0022DA76154B00221A77F9
:1003EC00134B00225A77124800F0CAFA0346002B2E
:1003FC0001D000F097F801233B620A237B610023B4
:10040C003B6100233B6000237B600023BB60002327
:10041C00FB600023BB610123FB610D237B623B4628
:10042C001946034800F0A7FB00BF2837BD4680BD26
:10043C00840000200064004080B500AF114B124ACC
:10044C001A60104B4FF461225A600E4B00229A60D6
:10045C000C4B0022DA600B4B00221A61094B0C2268
:10046C005A61084B00229A61064B0022DA6105485A
:10047C0001F0A0FF0346002B01D000F053F800BFA1
:10048C0080BD00BFAC0000200038014080B588B0B2
:10049C0000AF07F1100300221A605A609A60DA600C
:1004AC001E4B9B691D4A43F0100393611B4B9B69C8
:1004BC0003F01003FB60FB68184B9B69174A43F071
:1004CC0020039361154B9B6903F02003BB60BB6851
:1004DC00124B9B69114A43F0040393610F4B9B69C8
:1004EC0003F004037B607B6800224FF400510C483E
:1004FC0001F014FB4FF400533B6101237B6100239B
:10050C00BB610223FB6107F110031946044801F09B
:10051C0081F900BF2037BD4680BD00BF00100240EE
:10052C000010014080B400AF72B600BFFEE70000BF
:10053C0080B485B000AF154B9B69144A43F001039E
:10054C009361124B9B6903F00103BB60BB680F4BBB
:10055C00DB690E4A43F08053D3610C4BDB6903F02B
:10056C0080537B607B680A4B5B68FB60FB6823F005
:10057C00E063FB60FB6843F00073FB60044AFB68BC
:10058C00536000BF1437BD4680BC7047001002405A
:10059C000000014080B588B000AF786007F110030F
:1005AC0000221A605A609A60DA607B681B68244AE1
:1005BC00934241D1234BDB69224A43F00073D36150
:1005CC00204BDB6903F00073FB60FB681D4B9B69E0
:1005DC001C4A43F0040393611A4B9B6903F0040318
:1005EC00BB60BB684FF400633B6100237B6100235D
:1005FC00BB6107F110031946134801F00BF94FF4D6
:10060C0080533B6102237B610323FB6107F11003E1
:10061C0019460D4801F0FEF800220021142001F0CB
:10062C00C2F8142001F0DBF800220021152001F0A3
:10063C00BAF8152001F0D3F800BF2037BD4680BDB5
:10064C0000640040001002400008014080B588B0F2
:10065C0000AF786007F1100300221A605A609A60AC
:10066C00DA607B681B681C4A934231D11B4B9B6937
:10067C001A4A43F480439361184B9B6903F48043FB
:10068C00FB60FB68154B9B69144A43F004039361B0
:10069C00124B9B6903F00403BB60BB684FF40073FF
:1006AC003B6102237B610323FB6107F110031946B5
:1006BC000B4801F0AFF84FF480633B6100237B6182
:1006CC000023BB6107F110031946054801F0A2F89D
:1006DC0000BF2037BD4680BD0038014000100240ED
:1006EC000008014080B400AFFEE780B400AFFEE725
:1006FC0080B400AFFEE780B400AFFEE780B400AF7B
:10070C00FEE780B400AF00BFBD4680BC704780B42C
:10071C0000AF00BFBD4680BC704780B400AF00BFC7
:10072C00BD4680BC704780B500AF00F00DF900BF2E
:10073C0080BD000080B500AF024800F039FD00BF5D
:10074C0080BD00BF8400002080B500AF024800F0DF
:10075C002FFD00BF80BD00BF8400002080B586B097
:10076C0000AFF860B9607A6000237B610AE0AFF3F8
:10077C0000800146BB685A1CBA60CAB21A707B6909
:10078C0001337B617A697B689A42F0DB7B6818469F
:10079C001837BD4680BD80B483B000AF78604FF091
:1007AC00FF3318460C37BD4680BC704780B483B00D
:1007BC0000AF786039603B684FF400525A600023F8
:1007CC0018460C37BD4680BC704780B483B000AF70
:1007DC007860012318460C37BD4680BC704780B446
:1007EC0085B000AFF860B9607A6000231846143702
:1007FC00BD4680BC7047000080B586B000AF786005
:10080C00144A154BD31A7B617B693B61134B1B68F4
:10081C00002B02D1114B124A1A60104B1A687B68DC
:10082C0013443A699A4207D202F0EAF803460C22C2
:10083C001A604FF0FF3309E0084B1B68FB60074B55
:10084C001A687B681344054A1360FB68184618370E
:10085C00BD4680BD00500020000400004401002073
:10086C009802002080B400AF00BFBD4680BC70472A
:10087C00002103E00B4B5B58435004310A480B4BEF
:10088C0042189A42F6D30A4A02E0002342F8043B8B
:10089C00084B9A42F9D3FFF7E5FF02F0B7F8FFF7E0
:1008AC00A7FC7047083700080000002068000020F3
:1008BC006800002098020020FEE7000080B500AF21
:1008CC00084B1B68074A43F010031360032000F029
:1008DC005FFF002000F008F8FFF72AFE00231846FF
:1008EC0080BD00BF0020024080B582B000AF7860B0
:1008FC00124B1A68124B1B7819464FF47A73B3FBE0
:10090C00F1F3B2FBF3F3184600F077FF0346002B2C
:10091C0001D001230EE07B680F2B0AD800227968E6
:10092C004FF0FF3000F03FFF064A7B681360002356
:10093C0000E0012318460837BD4680BD00000020AA
:10094C00080000200400002080B400AF054B1B7889
:10095C001A46054B1B681344034A136000BFBD467F
:10096C0080BC7047080000204801002080B400AF14
:10097C00024B1B681846BD4680BC704748010020DE
:10098C0080B584B000AF78607B68002B01D1012367
:10099C00EDE07B6893F82030DBB2002B02D1786855
:1009AC00FFF7F8FD7B681B681A687B681B6822F0F0
:1009BC0002021A60FFF7DAFFF86012E0FFF7D6FFC9
:1009CC000246FB68D31A0A2B0BD97B685B6A43F48B
:1009DC0000327B685A627B68052283F82020012351
:1009EC00C5E07B681B685B6803F00203002BE5D154
:1009FC007B681B681A687B681B6842F001021A60EE
:100A0C00FFF7B4FFF86012E0FFF7B0FF0246FB6897
:100A1C00D31A0A2B0BD97B685B6A43F400327B68D0
:100A2C005A627B68052283F8202001239FE07B68B3
:100A3C001B685B6803F00103002BE5D07B681B7E11
:100A4C00012B08D17B681B681A687B681B6842F015
:100A5C0080021A6007E07B681B681A687B681B6859
:100A6C0022F080021A607B685B7E012B08D17B68C8
:100A7C001B681A687B681B6842F040021A6007E02A
:100A8C007B681B681A687B681B6822F040021A603E
:100A9C007B689B7E012B08D17B681B681A687B687E
:100AAC001B6842F020021A6007E07B681B681A681A
:100ABC007B681B6822F020021A607B68DB7E012BAE
:100ACC0008D17B681B681A687B681B6822F01002CF
:100ADC001A6007E07B681B681A687B681B6842F029
:100AEC0010021A607B681B7F012B08D17B681B6886
:100AFC001A687B681B6842F008021A6007E07B6882
:100B0C001B681A687B681B6822F008021A607B68F5
:100B1C005B7F012B08D17B681B681A687B681B689C
:100B2C0042F004021A6007E07B681B681A687B6855
:100B3C001B6822F004021A607B689A687B68DB6889
:100B4C001A437B681B691A437B685B6942EA0301A1
:100B5C007B685B685A1E7B681B680A43DA617B689A
:100B6C0000225A627B68012283F820200023184659
:100B7C001037BD4680BD80B487B000AF7860396057
:100B8C007B681B687B617B6893F82030FB74FB7C73
:100B9C00012B03D0FB7C022B40F0AA807B69D3F89D
:100BAC00003243F001027B69C3F800223B685B69A9
:100BBC0003F01F03012202FA03F3FB607B69D3F8F5
:100BCC001C22FB68DB431A407B69C3F81C223B6880
:100BDC00DB69002B23D17B69D3F80C22FB68DB4348
:100BEC001A407B69C3F80C223B68DB6819043B682C
:100BFC005B689BB23A68526919437B69483243F887
:100C0C0032103B689B6819043B681B689AB23B68BE
:100C1C005B690A4379694833DB000B445A603B68D3
:100C2C00DB69012B22D17B69D3F80C22FB681A43B8
:100C3C007B69C3F80C223B681B6819043B685B6832
:100C4C009BB23A68526919437B69483243F83210B7
:100C5C003B689B6819043B68DB689AB23B685B692C
:100C6C000A4379694833DB000B445A603B689B6943
:100C7C00002B09D17B69D3F80422FB68DB431A40B3
:100C8C007B69C3F8042207E07B69D3F80422FB6874
:100C9C001A437B69C3F804223B681B69002B09D1FA
:100CAC007B69D3F81422FB68DB431A407B69C3F8D9
:100CBC00142207E07B69D3F81422FB681A437B6982
:100CCC00C3F814223B681B6A012B07D17B69D3F84C
:100CDC001C22FB681A437B69C3F81C227B69D3F87E
:100CEC00003223F001027B69C3F80022002306E0E6
:100CFC007B685B6A43F480227B685A620123184646
:100D0C001C37BD4680BC704780B584B000AF78609E
:100D1C007B6893F82030DBB2012B2ED17B6802224A
:100D2C0083F820207B681B681A687B681B6822F09C
:100D3C0001021A60FFF71AFEF86012E0FFF716FEC8
:100D4C000246FB68D31A0A2B0BD97B685B6A43F407
:100D5C0000327B685A627B68052283F820200123CD
:100D6C0012E07B681B685B6803F00103002BE5D184
:100D7C007B6800225A62002306E07B685B6A43F4BE
:100D8C0000227B685A62012318461037BD4680BD8D
:100D9C0080B489B000AFF860B9607A603B60FB68E2
:100DAC0093F82030FB77FB681B689B68BB61FB7F6B
:100DBC00012B03D0FB7F022B40F0B880BB6903F002
:100DCC008063002B0AD1BB6903F00063002B05D1B3
:100DDC00BB6903F08053002B00F0A080BB691B0E95
:100DEC0003F003037B617B69022B07D9FB685B6A09
:100DFC0043F40002FB685A6201239EE001227B69E6
:100E0C009A403B681A60BB689B68002B0DD1BB688D
:100E1C001B685A05BB68DB68F96809681A437B696B
:100E2C0018331B010B441A600FE0BB685B68DA00D7
:100E3C00BB689B681A43BB68DB68F96809681A438E
:100E4C007B6918331B010B441A60FB681968BB687B
:100E5C001A697B6918331B010B4404331A60BB6895
:100E6C001B7D012B11D1FB681A687B6918331B01A0
:100E7C00134404331B68FA68116843F480727B696D
:100E8C0018331B010B4404331A607B6807331B783F
:100E9C001A067B6806331B781B041A437B680533E0
:100EAC001B781B0213437A68043212781046FA68D6
:100EBC00116843EA00027B691B010B4403F5C673FE
:100ECC001A607B6803331B781A067B6802331B7825
:100EDC001B041A437B6801331B781B0213437A688B
:100EEC0012781046FA68116843EA00027B691B010C
:100EFC000B4403F5C4731A60FB681A687B691833DA
:100F0C001B0113441B68FA68116843F001027B69EA
:100F1C0018331B010B441A6000230EE0FB685B6A5C
:100F2C0043F40012FB685A62012306E0FB685B6A1B
:100F3C0043F48022FB685A62012318462437BD46CD
:100F4C0080BC704780B487B000AFF860B9607A603D
:100F5C003B60FB6893F82030FB75FB7D012B03D0C5
:100F6C00FB7D022B40F0F380BB68002B0ED1FB689D
:100F7C001B68DB6803F00303002B16D1FB685B6A6C
:100F8C0043F40012FB685A620123E7E0FB681B681C
:100F9C001B6903F00303002B07D1FB685B6A43F466
:100FAC000012FB685A620123D8E0FB681A68BB6820
:100FBC001B331B0113441B6803F004027B689A600B
:100FCC007B689B68002B0CD1FB681A68BB681B33D1
:100FDC001B0113441B685B0DC3F30A027B681A6088
:100FEC000BE0FB681A68BB681B331B0113441B68BE
:100FFC00DB0823F060427B685A60FB681A68BB68A8
:10100C001B331B0113441B6803F002027B68DA607C
:10101C00FB681A68BB681B331B01134404331B6841
:10102C0003F00F027B681A61FB681A68BB681B33FC
:10103C001B01134404331B681B0ADAB27B689A61E8
:10104C00FB681A68BB681B331B01134404331B6811
:10105C001B0C9AB27B685A61FB681A68BB681B014F
:10106C00134403F5DC731B68DAB23B681A70FB6837
:10107C001A68BB681B01134403F5DC731B681A0A5E
:10108C003B680133D2B21A70FB681A68BB681B014B
:10109C00134403F5DC731B681A0C3B680233D2B2A1
:1010AC001A70FB681A68BB681B01134403F5DC73E8
:1010BC001B681A0E3B680333D2B21A70FB681A68AD
:1010CC00BB681B01134403F5DE731A683B680433D9
:1010DC00D2B21A70FB681A68BB681B01134403F583
:1010EC00DE731B681A0A3B680533D2B21A70FB68B0
:1010FC001A68BB681B01134403F5DE731B681A0CDA
:10110C003B680633D2B21A70FB681A68BB681B01C5
:10111C00134403F5DE731B681A0E3B680733D2B217
:10112C001A70BB68002B08D1FB681B68DA68FB6877
:10113C001B6842F02002DA6007E0FB681B681A6942
:10114C00FB681B6842F020021A61002306E0FB6872
:10115C005B6A43F48022FB685A62012318461C37F1
:10116C00BD4680BC704780B485B000AF78603960F4
:10117C007B6893F82030FB73FB7B012B02D0FB7B4D
:10118C00022B09D17B681B6859697B681B683A681C
:10119C000A435A61002306E07B685B6A43F48022B1
:1011AC007B685A62012318461437BD4680BC7047D1
:1011BC0080B58AB000AF786000237B627B681B68C7
:1011CC005B693B627B681B685B68FB617B681B68C7
:1011DC009B68BB617B681B68DB687B617B681B68F9
:1011EC001B693B617B681B689B69FB603B6A03F076
:1011FC000103002B7CD0BB6903F00103002B23D02F
:10120C007B681B6801229A60BB6903F00203002B08
:10121C0003D0786800F083F916E0BB6903F004038F
:10122C00002B04D07B6A43F400637B620CE0BB6947
:10123C0003F00803002B04D07B6A43F480537B62D9
:10124C0002E0786800F086F9BB6903F48073002B28
:10125C0024D07B681B684FF480729A60BB6903F4DE
:10126C000073002B03D0786800F062F916E0BB69BC
:10127C0003F48063002B04D07B6A43F400537B623D
:10128C000CE0BB6903F40063002B04D07B6A43F4CD
:10129C0080437B6202E0786800F065F9BB6903F477
:1012AC008033002B24D07B681B684FF480329A600B
:1012BC00BB6903F40033002B03D0786800F041F9CC
:1012CC0016E0BB6903F48023002B04D07B6A43F443
:1012DC0000437B620CE0BB6903F40023002B04D0B9
:1012EC007B6A43F480337B6202E0786800F044F957
:1012FC003B6A03F00803002B0CD07B6903F010034E
:10130C00002B07D07B6A43F400737B627B681B68FD
:10131C001022DA603B6A03F00403002B0BD07B69CC
:10132C0003F00803002B06D07B681B680822DA60E8
:10133C00786800F02AF93B6A03F00203002B09D00D
:10134C007B681B68DB6803F00303002B02D0786812
:10135C00FEF71CFF3B6A03F04003002B0CD03B69EB
:10136C0003F01003002B07D07B6A43F480637B628D
:10137C007B681B6810221A613B6A03F02003002B68
:10138C000BD03B6903F00803002B06D07B681B686D
:10139C0008221A61786800F00AF93B6A03F010031E
:1013AC00002B09D07B681B681B6903F00303002B1F
:1013BC0002D0786800F0F2F83B6A03F40033002B9B
:1013CC000BD0FB6903F01003002B06D07B681B6865
:1013DC0010225A60786800F0F3F83B6A03F480330B
:1013EC00002B0BD0FB6903F00803002B06D07B68A5
:1013FC001B6808225A60786800F0EBF83B6A03F42B
:10140C000043002B7BD0FB6903F00403002B72D04C
:10141C003B6A03F48073002B08D0FB6803F00103D4
:10142C00002B03D07B6A43F001037B623B6A03F41D
:10143C000073002B08D0FB6803F00203002B03D0D1
:10144C007B6A43F002037B623B6A03F48063002BEC
:10145C0008D0FB6803F00403002B03D07B6A43F035
:10146C0004037B623B6A03F40063002B43D0FB68EC
:10147C0003F07003002B3ED0FB6803F07003602B6D
:10148C002BD0602B2ED8502B22D0502B2AD8402B6F
:10149C0019D0402B26D8302B10D0302B22D8102B23
:1014AC0002D0202B05D01DE07B6A43F008037B6241
:1014BC0019E07B6A43F010037B6214E07B6A43F013
:1014CC0020037B620FE07B6A43F040037B620AE0FF
:1014DC007B6A43F080037B6205E07B6A43F4807394
:1014EC007B6200E000BF7B681B689A697B681B68A5
:1014FC0022F070029A617B681B6804225A607B6A36
:10150C00002B08D07B685A6A7B6A1A437B685A6244
:10151C00786800F067F800BF2837BD4680BD80B4FE
:10152C0083B000AF786000BF0C37BD4680BC7047FD
:10153C0080B483B000AF786000BF0C37BD4680BC70
:10154C00704780B483B000AF786000BF0C37BD46E5
:10155C0080BC704780B483B000AF786000BF0C379C
:10156C00BD4680BC704780B483B000AF786000BFCC
:10157C000C37BD4680BC704780B483B000AF786038
:10158C0000BF0C37BD4680BC704780B483B000AF41
:10159C00786000BF0C37BD4680BC704780B483B008
:1015AC0000AF786000BF0C37BD4680BC704780B47C
:1015BC0083B000AF786000BF0C37BD4680BC70476D
:1015CC0080B483B000AF786000BF0C37BD4680BCE0
:1015DC00704780B483B000AF786000BF0C37BD4655
:1015EC0080BC704780B483B000AF786000BF0C370C
:1015FC00BD4680BC7047000080B485B000AF7860F9
:10160C007B6803F00703FB600C4BDB68BB60BA68BC
:10161C004FF6FF031340BB60FB681A02BB68134311
:10162C0043F0BF6343F40033BB60044ABB68D36030
:10163C0000BF1437BD4680BC704700BF00ED00E012
:10164C0080B400AF044BDB681B0A03F00703184699
:10165C00BD4680BC704700BF00ED00E080B483B095
:10166C0000AF0346FB7197F90730002B0BDBFB79BE
:10167C0003F01F02064997F907305B09012000FAB5
:10168C0002F241F8232000BF0C37BD4680BC7047E6
:10169C0000E100E080B483B000AF03463960FB7119
:1016AC0097F90730002B0ADB3B68DAB20C4997F943
:1016BC0007301201D2B20B4483F800230AE03B68D6
:1016CC00DAB20849FB7903F00F03043B1201D2B2E2
:1016DC000B441A7600BF0C37BD4680BC704700BF68
:1016EC0000E100E000ED00E080B489B000AFF860EC
:1016FC00B9607A60FB6803F00703FB61FB69C3F117
:10170C000703042B28BF0423BB61FB690433062B9E
:10171C0002D9FB69033B00E000237B614FF0FF32F1
:10172C00BB6902FA03F3DA43BB681A407B699A403F
:10173C004FF0FF317B6901FA03F3D9437B680B400F
:10174C00134318462437BD4680BC704780B582B021
:10175C0000AF78607B68013BB3F1807F01D301233C
:10176C000FE00A4A7B68013B53600F214FF0FF30BA
:10177C00FFF790FF054B00229A60044B07221A607A
:10178C00002318460837BD4680BD00BF10E000E0BE
:10179C0080B582B000AF78607868FFF72DFF00BF8E
:1017AC000837BD4680BD80B586B000AF0346B96032
:1017BC007A60FB7300237B61FFF742FF78617A68E4
:1017CC00B9687869FFF790FF024697F90F30114618
:1017DC001846FFF75FFF00BF1837BD4680BD80B5C8
:1017EC0082B000AF0346FB7197F907301846FFF73C
:1017FC0035FF00BF0837BD4680BD80B582B000AF55
:10180C0078607868FFF7A2FF034618460837BD4694
:10181C0080BD000080B48BB000AF786039600023CD
:10182C007B6200233B6269E101227B6A02FA03F3CB
:10183C00FB613B681B68FA691340BB61BA69FB69C1
:10184C009A4240F058813B685B689A4A93425ED05A
:10185C00984A934275D8984A934258D0964A9342E4
:10186C006FD8964A934252D0944A934269D8944A7C
:10187C0093424CD0924A934263D8924A934246D0B8
:10188C00904A93425DD8122B2AD8122B59D801A218
:10189C0052F823F01B190008F51800080719000866
:1018AC00491900084F1900084F1900084F19000872
:1018BC004F1900084F1900084F1900084F1900085C
:1018CC004F1900084F1900084F1900084F1900084C
:1018DC004F1900084F190008FD18000811190008CD
:1018EC00794A934213D02CE03B68DB683B6229E0D9
:1018FC003B68DB6804333B6224E03B68DB680833FD
:10190C003B621FE03B68DB680C333B621AE03B68D0
:10191C009B68002B02D104233B6213E03B689B685D
:10192C00012B05D108233B627B68FA691A6109E037
:10193C0008233B627B68FA695A6103E000233B622F
:10194C0000E000BFBB69FF2B01D87B6801E07B681E
:10195C0004337B61BB69FF2B02D87B6A9B0002E0DE
:10196C007B6A083B9B003B617B691A680F213B69D2
:10197C0001FA03F3DB431A40396A3B6901FA03F3BA
:10198C001A437B691A603B685B6803F08053002B39
:10199C0000F0B1804D4B9B694C4A43F001039361BD
:1019AC004A4B9B6903F00103BB60BB68484A7B6AE6
:1019BC009B08023352F82330FB607B6A03F003036D
:1019CC009B000F2202FA03F3DB43FA681340FB601F
:1019DC007B68404A934213D07B683F4A93420DD0B8
:1019EC007B683E4A934207D07B683D4A934201D1C3
:1019FC00032306E0042304E0022302E0012300E0B9
:101A0C0000237A6A02F0030292009340FA681343AF
:101A1C00FB602F497B6A9B080233FA6841F823204C
:101A2C003B685B6803F48033002B06D02D4B1A689F
:101A3C002C49BB6913430B6006E02A4B1A68BB693F
:101A4C00DB43284913400B603B685B6803F40033AD
:101A5C00002B06D0234B5A682249BB6913434B60B9
:101A6C0006E0204B5A68BB69DB431E4913404B60B0
:101A7C003B685B6803F48013002B06D0194B9A6803
:101A8C001849BB6913438B6006E0164B9A68BB6917
:101A9C00DB43144913408B603B685B6803F4001311
:101AAC00002B21D00F4BDA680E49BB691343CB6076
:101ABC0021E000BF000032100000311000002210A5
:101ACC000000211000001210000011100010024044
:101ADC000000014000080140000C014000100140D2
:101AEC0000140140000401400B4BDA68BB69DB4376
:101AFC0009491340CB607B6A01337B623B681A68EF
:101B0C007B6A22FA03F3002B7FF48EAE00BF00BF7A
:101B1C002C37BD4680BC70470004014080B483B0B4
:101B2C0000AF78600B467B8013467B707B78002B74
:101B3C0003D07A887B681A6103E07B881A047B687F
:101B4C001A6100BF0C37BD4680BC704780B485B0AD
:101B5C0000AF78600B467B807B68DB68FB607A8823
:101B6C00FB6813401A04FB68D9437B880B401A436B
:101B7C007B681A6100BF1437BD4680BC70470000FB
:101B8C0080B586B000AF78607B68002B01D1012353
:101B9C0072E27B681B6803F00103002B00F0878066
:101BAC00924B5B6803F00C03042B0CD08F4B5B68DF
:101BBC0003F00C03082B12D18C4B5B6803F48033BD
:101BCC00B3F5803F0BD1894B1B6803F40033002B1A
:101BDC006CD07B685B68002B68D101234CE27B687E
:101BEC005B68B3F5803F06D1804B1B687F4A43F49A
:101BFC00803313602EE07B685B68002B0CD17B4B31
:101C0C001B687A4A23F480331360784B1B68774A3D
:101C1C0023F4802313601DE07B685B68B3F5A02F71
:101C2C000CD1724B1B68714A43F4802313606F4BC9
:101C3C001B686E4A43F4803313600BE06B4B1B68DC
:101C4C006A4A23F480331360684B1B68674A23F499
:101C5C00802313607B685B68002B13D0FEF786FE35
:101C6C00386108E0FEF782FE02463B69D31A642B0A
:101C7C0001D9032300E25D4B1B6803F40033002BF6
:101C8C00F0D014E0FEF772FE386108E0FEF76EFE4D
:101C9C0002463B69D31A642B01D90323ECE1534B65
:101CAC001B6803F40033002BF0D100E000BF7B680D
:101CBC001B6803F00203002B63D04C4B5B6803F0F2
:101CCC000C03002B0BD0494B5B6803F00C03082B67
:101CDC001CD1464B5B6803F48033002B16D1434B6D
:101CEC001B6803F00203002B05D07B681B69012BDA
:101CFC0001D00123C0E13D4B1B6823F0F8027B6847
:101D0C005B69DB00394913430B603AE07B681B6964
:101D1C00002B20D0364B01221A60FEF727FE3861CB
:101D2C0008E0FEF723FE02463B69D31A022B01D9C9
:101D3C000323A1E12D4B1B6803F00203002BF0D011
:101D4C002A4B1B6823F0F8027B685B69DB00274990
:101D5C0013430B6015E0264B00221A60FEF706FEBB
:101D6C00386108E0FEF702FE02463B69D31A022BEB
:101D7C0001D9032380E11D4B1B6803F00203002BE8
:101D8C00F0D17B681B6803F00803002B3AD07B680A
:101D9C009B69002B19D0174B01221A60FEF7E6FD48
:101DAC00386108E0FEF7E2FD02463B69D31A022BCC
:101DBC0001D9032360E10D4B5B6A03F00203002B96
:101DCC00F0D0012000F0D8FA1CE00A4B00221A6077
:101DDC00FEF7CCFD38610FE0FEF7C8FD02463B690B
:101DEC00D31A022B08D9032346E100BF001002408E
:101DFC000000424280044242924B5B6A03F00203B1
:101E0C00002BE9D17B681B6803F00403002B00F066
:101E1C00A6800023FB758B4BDB6903F08053002BF2
:101E2C000DD1884BDB69874A43F08053D361854BD6
:101E3C00DB6903F08053BB60BB680123FB75824BED
:101E4C001B6803F48073002B18D17F4B1B687E4AF0
:101E5C0043F480731360FEF789FD386108E0FEF7E8
:101E6C0085FD02463B69D31A642B01D9032303E198
:101E7C00754B1B6803F48073002BF0D07B68DB6818
:101E8C00012B06D16F4B1B6A6E4A43F001031362A0
:101E9C002DE07B68DB68002B0CD16A4B1B6A694A0E
:101EAC0023F001031362674B1B6A664A23F0040399
:101EBC0013621CE07B68DB68052B0CD1614B1B6A41
:101ECC00604A43F0040313625E4B1B6A5D4A43F0A5
:101EDC00010313620BE05B4B1B6A5A4A23F00103AC
:101EEC001362584B1B6A574A23F0040313627B6836
:101EFC00DB68002B15D0FEF739FD38610AE0FEF7E0
:101F0C0035FD02463B69D31A41F28832934201D91E
:101F1C000323B1E04B4B1B6A03F00203002BEED002
:101F2C0014E0FEF723FD38610AE0FEF71FFD0246C0
:101F3C003B69D31A41F28832934201D903239BE0C7
:101F4C00404B1B6A03F00203002BEED1FB7D012BEF
:101F5C0005D13C4BDB693B4A23F08053D3617B6852
:101F6C00DB69002B00F08780364B5B6803F00C03B9
:101F7C00082B61D07B68DB69022B46D1334B0022E6
:101F8C001A60FEF7F3FC386108E0FEF7EFFC02463E
:101F9C003B69D31A022B01D903236DE0294B1B6833
:101FAC0003F00073002BF0D17B681B6AB3F5803F04
:101FBC0008D1244B5B6823F400327B689B68214971
:101FCC0013434B601F4B5B6823F474127B68196AD4
:101FDC007B685B6A0B431B4913434B601B4B012211
:101FEC001A60FEF7C3FC386108E0FEF7BFFC02463E
:101FFC003B69D31A022B01D903233DE0114B1B681B
:10200C0003F00073002BF0D035E0104B00221A6067
:10201C00FEF7ACFC386108E0FEF7A8FC02463B6911
:10202C00D31A022B01D9032326E0064B1B6803F0BD
:10203C000073002BF0D11EE07B68DB69012B07D10C
:10204C00012319E000100240007000406000424281
:10205C000B4B5B68FB60FB6803F480327B681B6A8C
:10206C009A4206D1FB6803F470127B685B6A9A4251
:10207C0001D0012300E0002318461837BD4680BD6F
:10208C000010024080B584B000AF786039607B6886
:10209C00002B01D10123D0E06A4B1B6803F007032E
:1020AC003A689A4210D9674B1B6823F007026549BE
:1020BC003B6813430B60634B1B6803F007033A68E0
:1020CC009A4201D00123B8E07B681B6803F002033D
:1020DC00002B20D07B681B6803F00403002B05D079
:1020EC00594B5B68584A43F4E06353607B681B6848
:1020FC0003F00803002B05D0534B5B68524A43F4A2
:10210C0060535360504B5B6823F0F0027B689B6814
:10211C004D4913434B607B681B6803F00103002B94
:10212C0040D07B685B68012B07D1474B1B6803F4DD
:10213C000033002B15D101237FE07B685B68022BF9
:10214C0007D1414B1B6803F00073002B09D101230D
:10215C0073E03D4B1B6803F00203002B01D10123FC
:10216C006BE0394B5B6823F003027B685B68364994
:10217C0013434B60FEF7FAFBF8600AE0FEF7F6FB40
:10218C000246FB68D31A41F28832934201D90323E9
:10219C0053E02D4B5B6803F00C027B685B689B0083
:1021AC009A42EBD1274B1B6803F007033A689A421B
:1021BC0010D2244B1B6823F0070222493B681343BF
:1021CC000B60204B1B6803F007033A689A4201D05E
:1021DC00012332E07B681B6803F00403002B08D05A
:1021EC00194B5B6823F4E0627B68DB681649134388
:1021FC004B607B681B6803F00803002B09D0124B63
:10220C005B6823F460527B681B69DB000E49134347
:10221C004B6000F021F802460B4B5B681B0903F086
:10222C000F030A49CB5C22FA03F3094A1360094BEA
:10223C001B681846FEF758FB002318461037BD469E
:10224C0080BD00BF0020024000100240B4360008E0
:10225C00000000200400002090B48AB000AF294B8D
:10226C003C1D0FCB84E80F0040F201233B80002380
:10227C00FB610023BB6100237B6200237B61002395
:10228C003B62214B5B68FB61FB6903F00C03042B85
:10229C0002D0082B03D02BE01C4B3B622BE0FB69DC
:1022AC009B0C03F00F0328333B4413F8243C7B6155
:1022BC00FB6903F48033002B12D0134B5B685B0C6F
:1022CC0003F0010328333B4413F8283CBB617B69C2
:1022DC000E4A03FB02F2BB69B2FBF3F37B6204E030
:1022EC007B690B4A02FB03F37B627B6A3B6202E075
:1022FC00064B3B6200BF3B6A18462837BD4690BC74
:10230C00704700BFA43600080010024000127A008B
:10231C0000093D0080B400AF024B1B681846BD4657
:10232C0080BC70470000002080B500AFFFF7F2FFC3
:10233C000246054B5B681B0A03F007030349CB5CA1
:10234C0022FA03F3184680BD00100240C436000880
:10235C0080B500AFFFF7DEFF0246054B5B68DB0A7A
:10236C0003F007030349CB5C22FA03F3184680BD44
:10237C0000100240C436000880B485B000AF78600D
:10238C000A4B1B680A4AA2FB03235B0A7A6802FB0E
:10239C0003F3FB6000BFFB685A1EFA60002BF9D1F7
:1023AC0000BF00BF1437BD4680BC70470000002042
:1023BC00D34D621080B582B000AF78607B68002B83
:1023CC0001D101233FE07B6893F83930DBB2002B5D
:1023DC0006D17B68002283F838207868FEF736F93E
:1023EC007B68242283F839207B681B68DA687B6859
:1023FC001B6822F40052DA60786800F005F97B68FB
:10240C001B681A697B681B6822F490421A617B680E
:10241C001B685A697B681B6822F02A025A617B6828
:10242C001B68DA687B681B6842F40052DA607B68D0
:10243C000022DA637B68202283F839207B68202213
:10244C0083F83A20002318460837BD4680BD80B576
:10245C008AB002AFF860B9603B601346FB80002382
:10246C007B61FB6893F83930DBB2202B7CD1BB68E5
:10247C00002B02D0FB88002B01D1012375E0FB68F7
:10248C0093F83830012B01D102236EE0FB68012256
:10249C0083F83820FB680022DA63FB68212283F87A
:1024AC003920FEF763FA7861FB68FA889A84FB6836
:1024BC00FA88DA84FB689B68B3F5805F08D1FB6807
:1024CC001B69002B04D10023FB61BB68BB6103E0DB
:1024DC00BB68FB610023BB61FB68002283F83820DA
:1024EC002AE03B6800937B6900228021F86800F0A9
:1024FC0040F80346002B01D0032336E0FB69002B88
:10250C000BD1BB691B881A46FB681B68C2F3080217
:10251C005A60BB690233BB6107E0FB691A78FB6840
:10252C001B685A60FB690133FB61FB68DB8C9BB257
:10253C00013B9AB2FB68DA84FB68DB8C9BB2002B04
:10254C00CFD13B6800937B6900224021F86800F0F2
:10255C0010F80346002B01D0032306E0FB68202271
:10256C0083F83920002300E0022318462037BD46AB
:10257C0080BD80B584B000AFF860B9603B60134695
:10258C00FB712CE0BB69B3F1FF3F28D0BB69002B7A
:10259C0007D0FEF7EBF902463B68D31ABA699A42A8
:1025AC001DD2FB681B68DA68FB681B6822F4D072CA
:1025BC00DA60FB681B685A69FB681B6822F0010231
:1025CC005A61FB68202283F83920FB68202283F8AB
:1025DC003A20FB68002283F8382003230FE0FB68C5
:1025EC001B681A68BB681340BA689A420CBF012377
:1025FC000023DBB21A46FB799A42C3D0002318465B
:10260C001037BD4680BD000080B584B000AF786047
:10261C007B681B681B6923F440517B68DA687B6814
:10262C001B680A431A617B689A687B681B691A43AA
:10263C007B685B691343BB607B681B68DB6823F4B6
:10264C00B05323F00C037A681268B9680B43D3605B
:10265C007B681B685B6923F440717B689A697B68B3
:10266C001B680A435A617B681B682C4A934203D14E
:10267C00FFF76EFEF86002E0FFF756FEF860FA68AE
:10268C0013469B0013449A001A447B685B689B00BA
:10269C00B2FBF3F3224AA2FB03235B091901FA688C
:1026AC0013469B0013449A001A447B685B689B009A
:1026BC00B2FBF3F21A4BA3FB02035B09642000FB91
:1026CC0003F3D31A1B013233154AA2FB03235B0914
:1026DC0003F0F0031944FA6813469B0013449A0064
:1026EC001A447B685B689B00B2FBF3F20C4BA3FBB8
:1026FC0002035B09642000FB03F3D31A1B01323382
:10270C00074AA2FB03235B0903F00F027B681B68DB
:10271C000A449A6000BF1037BD4680BD00380140A6
:10272C001F85EB51002310B50446C0E90033C0E906
:10273C000433836081814366C28183611946082218
:10274C005C3000F00EF90D4B246263620C4BA362FB
:10275C000C4BE3620C4B23630C4B9C4206D003F1F5
:10276C006802944202D0D0339C4205D104F1580047
:10277C00BDE8104000F06EB910BD00BFE92800089C
:10278C000B29000843290008672900084C01002088
:10279C00024A0349034800F069B800BF0C0000204E
:1027AC00013300081800002041680C4B10B5994209
:1027BC00044601D000F09EFDA168094B994202D05D
:1027CC00204600F097FDE168064B994204D0204664
:1027DC00BDE8104000F08EBD10BD00BF4C010020C4
:1027EC00B40100201C02002010B50B4B0B4C0C4A02
:1027FC0020461A6004210022FFF794FF04F16800C0
:10280C0001220921FFF78EFF04F1D0000222BDE85E
:10281C0010401221FFF786BF840200204C010020DB
:10282C009D270008014800F016B900BF8D0200205A
:10283C00014800F011B900BF8D02002010B504460C
:10284C00FFF7F0FF236A1BB1BDE81040FFF7F0BFA4
:10285C00044B2362044B1B68002BF5D1FFF7C4FF1C
:10286C00F2E700BFB5270008840200202DE9F843E9
:10287C000746884614460026D4E90195B9F10109AA
:10288C0005D52468002CF7D13046BDE8F883AB8918
:10289C00012B07D9B5F90E30013303D02946384640
:1028AC00C04706436835E9E70FB407B5064904ABE2
:1028BC00086853F8042B8168019300F0EBF903B01E
:1028CC005DF804EB04B0704764000020024B014635
:1028DC001868826800F036BD6400002010B50C4604
:1028EC00B1F90E1000F068F80028ABBF636DA38936
:1028FC001B1823F48053ACBF6365A38110BD2DE975
:10290C00F0411F468B890546DB050C46164605D55E
:10291C0002230022B1F90E1000F03CF8A3893246D4
:10292C0023F48053A38128463B46B4F90E10BDE82E
:10293C00F04100F053B810B50C46B1F90E1000F090
:10294C0029F8431CA38915BF606523F4805343F415
:10295C008053A38118BFA38110BDB1F90E1000F0F4
:10296C0009B803460244934200D1704703F8011B97
:10297C00F9E7000038B50023054D044608462B60E6
:10298C00FDF709FF431C02D12B6803B1236038BD4E
:10299C008802002038B50446084611460022054D31
:1029AC002A601A46FDF71BFF431C02D12B6803B1AA
:1029BC00236038BD8802002038B50446084611460D
:1029CC000022054D2A601A46FDF7C8FE431C02D1B1
:1029DC002B6803B1236038BD8802002038B504464B
:1029EC00084611460022054D2A601A46FDF7A8FB41
:1029FC00431C02D12B6803B1236038BD8802002030
:102A0C00014B1868704700BF6400002070B50026A9
:102A1C000C4D0D4C641BA410A64209D100F0FEFD18
:102A2C0000260A4D0A4C641BA410A64205D170BDA9
:102A3C0055F8043B98470136EEE755F8043B9847A8
:102A4C000136F2E7003700080037000800370008AD
:102A5C0004370008704770477047000038B50546CA
:102A6C00002940D051F8043C0C1F002BB8BFE418CF
:102A7C0000F0DCF81C4A136833B963601460284614
:102A8C00BDE8384000F0D8B8A34208D92068211816
:102A9C008B4201BF19685B6809182160EDE71A4683
:102AAC005B680BB1A342FAD911685018A0420BD144
:102ABC0020680144501883421160E0D118685B68AB
:102ACC00084410605360DAE702D90C232B60D6E778
:102ADC00206821188B4201BF19685B6809182160B6
:102AEC0063605460CBE738BD9002002070B50E4E89
:102AFC000C463168054611B900F0EEFC30602146F9
:102B0C00284600F0E9FC431C0AD0C41C24F0030442
:102B1C00A04207D0211A284600F0DEFC013001D17A
:102B2C004FF0FF34204670BD940200202DE9F8438D
:102B3C00CD1C25F0030508350C2D38BF0C25002DB8
:102B4C00074601DBA94205D90C2300263B60304621
:102B5C00BDE8F883DFF8D08000F068F8D8F80030D2
:102B6C001C465CBB29463846FFF7C0FF431C044695
:102B7C0055D1D8F800402646002E45D1002C48D01F
:102B8C0023683146384604EB030900F0A5FC814567
:102B9C003FD1216838466D1A2946FFF7A7FF01304F
:102BAC0037D023682B442360D8F80030002B38D062
:102BBC005A68A2422BD100225A600FE02268521BA5
:102BCC001FD40B2A17D96119A342256018BF59606D
:102BDC00636808BFC8F8001062514B60384604F1B6
:102BEC000B0600F029F826F00706231DF21AAED0CA
:102BFC009B1BA350ABE7A3426268DDD1C8F8002051
:102C0C00ECE723466468ACE734467668B4E71346D1
:102C1C00CCE70C2338463B6000F00EF897E72560B4
:102C2C00DCE75B60FFDE00BF900200200148FFF78D
:102C3C0012BF00BF8C0200200148FFF70DBF00BF80
:102C4C008C020020936810B4013B002B936007DAD0
:102C5C009469A34201DB0A2902D110BC00F0A6BB87
:102C6C001368581C10601970084610BC7047F8B5F2
:102C7C0006460F461446D518AC4201D1002007E099
:102C8C003A46304614F8011BFFF7DCFF431CF3D126
:102C9C00F8BD00002DE9F04F0D4614469846064647
:102CAC009DB018B1036A0BB9FFF7C8FD6B6ED9075D
:102CBC0005D4AB899A0502D4A86DFFF7CCFEAB897D
:102CCC001B0701D52B699BB92946304600F0ACFB9C
:102CDC0070B16B6EDC0704D54FF0FF301DB0BDE852
:102CEC00F08FAB899805F7D4A86DFFF7B5FEF3E725
:102CFC000023099320238DF8293030234FF001094C
:102D0C00CDF80C80DFF8AC818DF82A3023469A463A
:102D1C0013F8012B0AB1252AF9D1BAEB040B0BD00D
:102D2C005B46224629463046FFF7A1FF013000F0F2
:102D3C00A980099A5A4409929AF80030002B00F0A5
:102D4C00A18000234FF0FF32CDE905230AF1010ADF
:102D5C00049307938DF853301A935446052214F8B4
:102D6C00011B544800F0C8FB049AD8B9D10644BFE3
:102D7C0020238DF85330130744BF2B238DF8533089
:102D8C009AF800302A2B15D0544600204FF00A0C2C
:102D9C00079A214611F8013B303B092B4DD9B0B1B4
:102DAC00079214E0A0EB080309FA03F31343A246BD
:102DBC000493D2E7039B191D1B680391002BBBBF27
:102DCC005B4242F0020207930793B8BF0492237848
:102DDC002E2B0CD163782A2B34D1039B02341A1D71
:102DEC001B680392002BB8BF4FF0FF330593DFF83D
:102DFC00C8A003225046217800F07EFB38B1402257
:102E0C00049BA0EB0A00824013430134049314F892
:102E1C00011B062229488DF8281000F06DFB0028B4
:102E2C003FD0274B1BBB039B073323F0070308330F
:102E3C000393099B3B44099368E70C4601200CFB68
:102E4C000232A6E700234FF00A0C19460134059311
:102E5C00204610F8012B303A092A03D9002BC6D092
:102E6C000591C4E7044601230CFB0121F0E703ABF9
:102E7C0000932A463046134B04A9AFF30080074653
:102E8C00781CD6D16B6ED90705D4AB899A0502D4C0
:102E9C00A86DFFF7E1FDAB895B063FF51DAF099807
:102EAC001CE703AB00932A463046064B04A900F0FE
:102EBC007DF8E4E7CC360008D2360008D636000898
:102ECC00000000007B2C00082DE9F04716469946BF
:102EDC008A680B6907469342B8BF1346336091F872
:102EEC0043200C46DDF820800AB10133336023689F
:102EFC00990642BF336802333360256815F0060526
:102F0C0006D104F1190AE36832689B1AAB422BDC38
:102F1C0094F84320131E226818BF0123920630D464
:102F2C004946384604F14302C047013023D0236898
:102F3C00226903F00603042B14BF002533684FF0FD
:102F4C00000608BFE56804F11A0408BFED1A54F82E
:102F5C00123C08BF25EAE5759342C4BF9B1AED18D5
:102F6C00B5421AD1002008E00123524649463846A2
:102F7C00C047013003D14FF0FF30BDE8F087013579
:102F8C00C1E73020E11881F843005A1C94F8451031
:102F9C002244023382F84310C2E7012322464946F9
:102FAC003846C0470130E6D00136D9E72DE9FF4756
:102FBC000F7E9146782F80460C469A460C9D01F167
:102FCC00430207D8622F0AD8002F00F0D580582F63
:102FDC0000F0C18004F1420584F842703AE0A7F198
:102FEC006303152BF6D801A151F823F051300008DA
:102FFC0065300008E12F0008E12F0008E12F0008E0
:10300C00E12F000865300008E12F0008E12F0008CF
:10301C00E12F0008E12F00086B3100089130000807
:10302C0025310008E12F0008E12F00088D31000840
:10303C00E12F000891300008E12F0008E12F000873
:10304C002D3100082B681A1D1B682A6004F14205FB
:10305C0084F842300123A0E020682B68070603F1B6
:10306C000401296001D51E6803E04606FBD5B3F9BF
:10307C000060002E03DA2D23764284F843300A23B5
:10308C00594812E02B682068191D2960050601D5E6
:10309C001E6802E04106FBD51E886F2F0CBF08236B
:1030AC000A235148002184F843106568002DA8BFFD
:1030BC002168A560A4BF21F0040121600EB9002D88
:1030CC004BD01546B6FBF3F103FB1167C75D05F852
:1030DC00017D3746BB420E46F4D9082B0BD1236831
:1030EC00DE0708D5236961689942DEBF302305F8F5
:1030FC00013C05F1FF35521B22614B4621464046EF
:10310C00CDF800A003AAFFF7DFFE01304AD14FF043
:10311C00FF3004B0BDE8F087236843F02003236040
:10312C007827324884F84570236829681F0651F8BF
:10313C00046B02D45F0648BFB6B2DF0748BF43F04A
:10314C002003296048BF23601EB9236823F02003A5
:10315C0023601023A6E72448E4E71546BDE72B6857
:10316C002668181D6169286035061B6801D5196031
:10317C0002E07006FBD51980002315462361BCE7DD
:10318C002B6800211A1D2A601D686268284600F011
:10319C00B3F908B1401B606063682361002384F8B5
:1031AC004330AAE72A46494640462369D0470130B6
:1031BC00ADD023689B0713D4E068039B9842B8BF3B
:1031CC001846A6E70123324649464046D04701300F
:1031DC009DD00135E36803995B1AAB42F2DCEBE757
:1031EC00002504F11906F5E7DD360008EE36000877
:1031FC008A89F8B5054610070C4657D44B68002B46
:10320C0004DC0B6C002B01DC0020F8BDE66A002E00
:10321C00FAD0002312F480522F68216A2B6032D02E
:10322C00606DA3895A0705D56368C01A636B0BB12F
:10323C00236CC01A00230246E66A2846216AB0476E
:10324C00431CA38906D129681D292BD8284A0A4179
:10325C00D60727D4002262602269D904226004D5E3
:10326C00421C01D12B6803B96065616B2F6000298A
:10327C00CAD004F14403994202D02846FFF7EEFB72
:10328C0000206063C1E701232846B047411CC8D128
:10329C002B68002BC5D01D2B01D0162B01D12F6014
:1032AC00B2E7A38943F04003A381AEE70F69002F77
:1032BC00AAD0930718BF00230E6808BF4B69F61BF2
:1032CC000F608B60002E9FDD33463A462846216AFC
:1032DC00D4F828C0E047002806DCA3894FF0FF3063
:1032EC0043F04003A38190E70744361AEAE700BF96
:1032FC00FEFFBFDF38B50B6905460C4613B9002538
:10330C00284638BD18B1036A0BB9FFF797FAB4F920
:10331C000C30002BF3D0626ED00704D4990502D484
:10332C00A06DFFF798FB28462146FFF761FF636EFF
:10333C000546DA07E4D4A3899B05E1D4A06DFFF719
:10334C008BFBDDE770B50D461446064618B1036AD3
:10335C000BB9FFF773FA636ED80705D4A3899905E7
:10336C0002D4A06DFFF777FBA368013B002BA36091
:10337C0005DAA269934212DBEBB20A2B0FD0236859
:10338C005A1C22601D70EDB2636EDA0705D4A38956
:10339C009B0502D4A06DFFF75FFB284670BD294644
:1033AC002246304600F002F80546EDE7F8B50E4629
:1033BC001446054618B1036A0BB9FFF73FFAA36927
:1033CC00A360A3891A0725D523691BB32368226937
:1033DC00F6B2981A63693746834204DC21462846C4
:1033EC00FFF788FFE0B9A368013BA36023685A1C70
:1033FC0022601E706269431C9A4204D0A389DB07C9
:10340C0006D50A2E04D121462846FFF773FF38B99A
:10341C003846F8BD2146284600F006F80028D5D0DD
:10342C004FF0FF37F4E7000038B52A4B0546186813
:10343C000C4618B1036A0BB9FFF700FAA389B4F96B
:10344C000C20180722D4D90607D409232B6042F08C
:10345C0040034FF0FF30A38134E0580712D5616B65
:10346C0041B104F14403994202D02846FFF7F6FA21
:10347C0000236363A38923F02403A38100236360E7
:10348C0023692360A38943F00803A38123694BB903
:10349C00A38903F42073B3F5007F03D0214628469B
:1034AC0000F05DF8A089B4F90C2010F001030AD0EB
:1034BC000023A36063695B42A361236943B910F0E5
:1034CC008000C4D138BD810758BF6369A360F4E79D
:1034DC000020F7E76400002038B50023054D0446B2
:1034EC0008462B60FDF788F9431C02D12B6803B109
:1034FC00236038BD88020020034610B5C9B20244CF
:10350C009342184601D1002003E0047801338C4229
:10351C00F6D110BD70B50C46B1F90E101546002948
:10352C001E4696B00CDAA389002113F0800F0CBF55
:10353C004FF480634023002031602B6016B070BDC7
:10354C006A4600F049F80028EDDB019901F470415E
:10355C00A1F50053594259414FF48063EBE78B8935
:10356C0073B59D0706460C4607D504F14703236047
:10357C0023610123636102B070BD6A4601ABFFF7A2
:10358C00C9FF009905463046FFF7D0FA48B9B4F99F
:10359C000C309A05EFD423F0030343F00203A3810C
:1035AC00E3E7A389206043F08003A381009B2061A3
:1035BC006361019B5BB13046B4F90E1000F01EF84C
:1035CC0028B1A38923F0030343F00103A381A3894A
:1035DC001D43A581CFE7000038B50023064D0446F6
:1035EC00084611462B60FDF7E1F8431C02D12B680D
:1035FC0003B1236038BD00BF8802002038B500231A
:10360C00054D044608462B60FDF7DFF8431C02D13C
:10361C002B6803B1236038BD88020020F8B500BFC9
:10362C00F8BC08BC9E467047F8B500BFF8BC08BC97
:04363C009E467047EF
:1036400052784669666F30204D65737361676520F7
:1036500050656E64696E672043616C6C6261636B78
:1036600000000000476F74206D657373616765200B
:103670002D206964203D2030782530346C78206C12
:10368000656E203D203078256C7800000A0A0A2DEE
:103690002D2D2D2D2D2D2D0A5374617274696E6799
:1036A0000000000002030405060708090A0B0C0DC0
:1036B0000E0F1010000000000000000001020304C3
:1036C000060708090000000001020304232D302B27
:1036D0002000686C4C006566674546470030313213
:1036E000333435363738394142434445460030316A
:1036F00032333435363738396162636465660000C9
:04370000310100088B
:043704000D010008AB
:103708000024F40010000000010000000000000088
:10371800030000004C010020000000004C010020C4
:10372800B40100201C02002000000000000000007E
:103738000000000000000000000000000000000081
:103748000000000000000000000000000000000071
:103758000000000000000000000000000000000061
:08376800000000001800002021
:040000050800087D6A
:00000001FF
